:0400000007EF00F016
:0A0008007C820BED08F068EF0DF0AC
:10100000003738392F3435362A3132332D23303DED
:051010002B2569000022
:101016000600FACF58F0FBCF59F09DA415EF08F063
:1010260017EF08F020EF08F09EA41CEF08F01EEF63
:1010360008F020EF08F0AFEC0EF09DAC25EF08F0BD
:1010460027EF08F030EF08F09EAC2CEF08F02EEFFB
:1010560008F030EF08F0B1EC0EF09DA835EF08F07F
:1010660037EF08F040EF08F09EA83CEF08F03EEF9F
:1010760008F040EF08F0ADEC0EF09DAA45EF08F041
:1010860047EF08F050EF08F09EAA4CEF08F04EEF3D
:1010960008F050EF08F0B3EC0EF0F2AA55EF08F0A6
:1010A60057EF08F060EF08F0F2A45CEF08F05EEF8F
:1010B60008F060EF08F09BEC0EF09DA065EF08F0DD
:1010C60067EF08F070EF08F09EA06CEF08F06EEF87
:1010D60008F070EF08F095EC0EF09DA275EF08F0A1
:1010E60077EF08F080EF08F09EA27CEF08F07EEF25
:1010F60008F080EF08F0A1EC0EF0A0A285EF08F052
:1011060087EF08F090EF08F0A1A28CEF08F08EEFC1
:1011160008F090EF08F08FEC0EF0F2A895EF08F0CB
:1011260097EF08F0A0EF08F0F2A29CEF08F09EEF10
:1011360008F0A0EF08F0A9EC0EF0F0A6A5EF08F075
:10114600A7EF08F0B0EF08F0F0A0ACEF08F0AEEFB4
:1011560008F0B0EF08F0A7EC0EF0F0A8B5EF08F035
:10116600B7EF08F0C0EF08F0F0A2BCEF08F0BEEF52
:1011760008F0C0EF08F0A5EC0EF0F2A6C5EF08F0F7
:10118600C7EF08F0E2EF08F0F2A0CCEF08F0CEEFE0
:1011960008F0E2EF08F081A8D3EF08F0D5EF08F0E9
:1011A600E2EF08F03F50D8A4DBEF08F0DDEF08F0DF
:1011B600E2EF08F0010E3F6E010E7CEC0EF0F2A697
:1011C600E7EF08F0E9EF08F004EF09F0F2A0EEEF20
:1011D60008F0F0EF08F004EF09F081B8F5EF08F039
:1011E600F7EF08F004EF09F03F04D8A4FDEF08F08C
:1011F600FFEF08F004EF09F0000E3F6E000E7CECE6
:101206000EF0F2A609EF09F00BEF09F026EF09F050
:10121600F2A010EF09F012EF09F026EF09F081AA0B
:1012260017EF09F019EF09F026EF09F03E50D8A4A0
:101236001FEF09F021EF09F026EF09F0010E3E6ECF
:10124600010E6FEC0EF0F2A62BEF09F02DEF09F070
:1012560048EF09F0F2A032EF09F034EF09F048EF59
:1012660009F081BA39EF09F03BEF09F048EF09F0D0
:101276003E04D8A441EF09F043EF09F048EF09F026
:10128600000E3E6E000E6FEC0EF0F2A64DEF09F06A
:101296004FEF09F06AEF09F0F2A054EF09F056EFAC
:1012A60009F06AEF09F081AC5BEF09F05DEF09F038
:1012B6006AEF09F03D50D8A463EF09F065EF09F035
:1012C6006AEF09F0010E3D6E010E62EC0EF0F2A619
:1012D6006FEF09F071EF09F08CEF09F0F2A076EFED
:1012E60009F078EF09F08CEF09F081BC7DEF09F089
:1012F6007FEF09F08CEF09F03D04D8A485EF09F0E3
:1013060087EF09F08CEF09F0000E3D6E000E62ECDF
:101316000EF0F2A691EF09F093EF09F0AEEF09F0A7
:10132600F2A098EF09F09AEF09F0AEEF09F081AE5E
:101336009FEF09F0A1EF09F0AEEF09F03C50D8A4F9
:10134600A7EF09F0A9EF09F0AEEF09F0010E3C6E28
:10135600010E55EC0EF0F2A6B3EF09F0B5EF09F069
:10136600D0EF09F0F2A0BAEF09F0BCEF09F0D0EF28
:1013760009F081BEC1EF09F0C3EF09F0D0EF09F023
:101386003C04D8A4C9EF09F0CBEF09F0D0EF09F07F
:10139600000E3C6E000E55EC0EF09DA6D5EF09F042
:1013A600D7EF09F0E0EF09F09EA6DCEF09F0DEEFDB
:1013B60009F0E0EF09F02CEC0EF0A0A6E5EF09F03D
:1013C600E7EF09F0F0EF09F0A1A6ECEF09F0EEEF78
:1013D60009F0F0EF09F0ABEC0EF059C0FBFF58C076
:1013E600FAFF7C921100010E626E5A505B10D8B45F
:1013F600FFEF09F001EF0AF021EF0AF05AC0D9FF1A
:101406005BC0DAFFDF30E832E832070B5C6E080EAD
:101416005C6010EF0AF012EF0AF021EF0AF05AC0F2
:10142600D9FF5BC0DAFFDF50070B5C6E040E5C640D
:101436001FEF0AF021EF0AF084EF0AF0000E626E49
:10144600A5EF0AF05AC0D9FF5BC0DAFFDF30E832F9
:10145600E832070B5C6E010E5D6E5C2A35EF0AF012
:10146600D8905D365C2E33EF0AF05D50FF0A5E6E53
:101476005AC0D9FF5BC0DAFFDF50070B5F6E5F50C3
:10148600020D700EF324D96E000EF420DA6EDECF54
:1014960060F0DDCF61F060C0D9FF61C0DAFF5E5059
:1014A600DF16A5EF0AF05AC0D9FF5BC0DAFFDF30BE
:1014B600E832E832070B5C6E010E5D6E5C2A66EF61
:1014C6000AF0D8905D365C2E64EF0AF05AC0D9FF58
:1014D6005BC0DAFFDF50070B5E6E5E50020D700ECA
:1014E600F324D96E000EF420DA6EDECF5FF0DDCF86
:1014F60060F05FC0D9FF60C0DAFF5D50DF12A5EF74
:101506000AF05AC0D9FF5BC0DAFFDFBC8DEF0AF0E4
:1015160090EF0AF0010E91EF0AF0000E5C6E5D6A24
:101526005D50000AD8B49AEF0AF021EF0AF05C5039
:10153600000AD8B425EF0AF0010AD8B456EF0AF02B
:1015460021EF0AF062501200010E636E5A505B10D2
:10155600D8B4B0EF0AF0B2EF0AF0D2EF0AF05AC0F0
:10156600D9FF5BC0DAFFDF30E832E832070B5D6E89
:10157600080E5D60C1EF0AF0C3EF0AF0D2EF0AF081
:101586005AC0D9FF5BC0DAFFDF50070B5D6E040E51
:101596005D64D0EF0AF0D2EF0AF035EF0BF0000EE3
:1015A600636E4AEF0BF05AC0D9FF5BC0DAFFDF303B
:1015B600E832E832070B5D6E010E5E6E5D2AE6EFDD
:1015C6000AF0D8905E365D2EE4EF0AF05AC0D9FFD5
:1015D6005BC0DAFFDF50070B5F6E5F50020D8A0EAD
:1015E600F324D96E000EF420DA6EDECF60F0DDCF84
:1015F60061F060C0D9FF61C0DAFF5E50DF124AEFCA
:101606000BF05AC0D9FF5BC0DAFFDF30E832E832B0
:10161600070B5D6E010E5E6E5D2A14EF0BF0D8901F
:101626005E365D2E12EF0BF05E50FF0A5F6E5AC0FB
:10163600D9FF5BC0DAFFDF50070B606E6050020D0A
:101646008A0EF324D96E000EF420DA6EDECF61F036
:10165600DDCF62F061C0D9FF62C0DAFF5F50DF16EE
:101666004AEF0BF05C505D6E5E6A5E50000AD8B4BD
:101676003FEF0BF0D2EF0AF05D50000AD8B404EF4A
:101686000BF0010AD8B4D6EF0AF0D2EF0AF0635095
:1016960012006D506E10D8A453EF0BF055EF0BF0FF
:1016A60057EF0BF0ADEF0BF0C69A20EE0EF06D5033
:1016B600D9266E50DA22DFA063EF0BF065EF0BF050
:1016C6006DEF0BF06DC067F06EC068F0FEEC0CF0CD
:1016D60098EF0BF020EE0EF06D50D9266E50DA2200
:1016E600DFB078EF0BF07AEF0BF098EF0BF06DC0F0
:1016F6005AF06EC05BF0B8EC0DF020EE0CF06D50B9
:10170600D9266E50DA22DF506F6EC6506F18F00B76
:101716006F18C66EC69EC69CC68820EE0DF06D502C
:10172600D9266E50DA22DF50C86E6DC05AF06EC0F0
:101736005BF099EC0DF06DC05AF06EC05BF0D7EC23
:101746000DF0180E946E6DC05AF06EC05BF0F6EC9C
:101756000DF0C68A1200000E626E000E636E000E59
:10176600646E000E656E5E505F1060106110D8B436
:10177600BFEF0BF0C1EF0BF0F7EF0BF0010E666E4B
:10178600CBEF0BF0D8905E365F3660366136662A50
:1017960061AED0EF0BF0D2EF0BF0C5EF0BF0D890A7
:1017A60062366336643665365E505A5C5F505B5807
:1017B60060505C5861505D58D8A0E4EF0BF0E6EF3E
:1017C6000BF0EFEF0BF05E505A5E5F505B5A6050C5
:1017D6005C5A61505D5A6280D890613260325F32E5
:1017E6005E32662ED2EF0BF062C05AF063C05BF039
:1017F60064C05CF065C05DF0120055825594620EBF
:10180600546E55965590060E536E5594220E4F6E95
:101816001C0E506E000E4D6E000E4E6E000E4B6E80
:10182600000E4C6E470E6D6E000E6E6E4CEC0BF09D
:101836007B0E686E000E696EC5EC0CF0620E3918F0
:10184600D8A428EF0CF02AEF0CF032EF0CF07B0E48
:10185600646E000E656E35EC0DF021EF0CF0640E33
:101866003918D8A439EF0CF03BEF0CF021EF0CF04F
:101876007B0E646E000E656E8AEC0CF021EF0CF0A8
:1018860007EF00F064506510D8B44CEF0CF04EEF43
:101896000CF06EEF0CF064C0D9FF65C0DAFFDF30E4
:1018A600E832E832070B666E080E66605DEF0CF0F4
:1018B6005FEF0CF06EEF0CF064C0D9FF65C0DAFF85
:1018C600DF50070B666E040E66646CEF0CF06EEF6D
:1018D6000CF072EF0CF0000E676E88EF0CF064C02F
:1018E6005AF065C05BF0F6EC09F0676E64C05AF01A
:1018F60065C05BF064C0D9FF65C0DAFF000EDFBECD
:10190600010E5C6EA7EC0AF0676E67501200645019
:101916006510D8A491EF0CF093EF0CF095EF0CF056
:10192600C4EF0CF044C067F064C0D9FF65C0DAFFAD
:10193600DF500F0B666E67506618F80B6618676EF9
:1019460064C0D9FF65C0DAFFDF38070B666E6646EE
:101956006646664667506618C70B6618676E679CCC
:1019660064C0D9FF65C0DAFFDFAE02D0678E01D052
:10197600679E670E5A6E000E5B6E000E5C6EA7ECDD
:101986000AF0120068506910D8A4CCEF0CF0CEEF24
:101996000CF0D0EF0CF0FDEF0CF046C06BF068C019
:1019A600D9FF69C0DAFFDF500F0B6A6E6B506A18F9
:1019B600F80B6A186B6E68C0D9FF69C0DAFFDF38AA
:1019C600070B6A6E6A466A466A466B506A18C70B08
:1019D6006A186B6E6B9C68C0D9FF69C0DAFFDFAE10
:1019E60002D06B8E01D06B9E6B0E646E000E656E20
:1019F60045EC0CF0120020EE0CF06750D92668502A
:101A0600DA22DF50696EC6506918F00B6918C66E87
:101A1600000E5A6E120E5B6E7A0E5C6E000E5D6ED6
:101A260067C0D9FF68C0DAFFDECF69F0DECF6AF0A3
:101A3600DECF6BF0DECF6CF0020ED89069366A36D8
:101A46006B366C36E82E20EF0DF069C05EF06AC08A
:101A56005FF06BC060F06CC061F0AEEC0BF05A0446
:101A6600C86E120064506510D8A43CEF0DF03EEF2E
:101A76000DF040EF0DF067EF0DF045C067F064C064
:101A8600D9FF65C0DAFFDF500F0B666E6750661828
:101A9600F80B6618676E64C0D9FF65C0DAFFDF38D9
:101AA600070B666E66466646664667506618C70B3F
:101AB6006618676E679C678E670E5A6E000E5B6EC1
:101AC600010E5C6EA7EC0AF01200860EF66E1C0E76
:101AD600F76E000EF86E00EE80F010EE24F00900AE
:101AE600F5CFEEFFE550E150FAE1120EF66E1D0E4F
:101AF600F76E000EF86E00EE70F010EE0CF00900B6
:101B0600F5CFEEFFE550E150FAE100EEA4F00E0E3F
:101B1600EE6AE806FDE100EE01F0560EEE6AE80612
:101B2600FDE17C907C92000100EF0CF020EE0EF0BF
:101B36005A50D9265B50DA22DFB2A4EF0DF0A6EF99
:101B46000DF0A9EF0DF0C79EB7EF0DF020EE0EF0E9
:101B56005A50D9265B50DA22DFA2B4EF0DF0B6EF69
:101B66000DF0B7EF0DF0C78E120020EE0EF05A50B2
:101B7600D9265B50DA22DFA6C3EF0DF0C5EF0DF0D4
:101B8600C8EF0DF0C58ED6EF0DF020EE0EF05A50D0
:101B9600D9265B50DA22DFB6D3EF0DF0D5EF0DF084
:101BA600D6EF0DF0C59E120020EE0EF05A50D92643
:101BB6005B50DA22DFA4E2EF0DF0E4EF0DF0E7EF81
:101BC6000DF0C79EF5EF0DF020EE0EF05A50D92617
:101BD6005B50DA22DFA2F2EF0DF0F4EF0DF0F5EF35
:101BE6000DF0C78E12009D86A0869E96A19620EEC9
:101BF60008F05A50D9265B50DA22DECF2DF0DDCF21
:101C06002EF020EE04F05A50D9265B50DA22DECFB1
:101C16002FF0DDCF30F0F28EF28C1200C698C7B4EA
:101C260017EF0EF019EF0EF02AEF0EF0C7BA1EEFFF
:101C36000EF020EF0EF02AEF0EF0C950C7A026EFE7
:101C46000EF028EF0EF021EF0EF0C9CF39F0C6885E
:101C560012009E962D502E10D8B434EF0EF036EFAB
:101C66000EF042EF0EF002D842EF0EF00500FA6ECB
:101C76002D50FD6E2E50FE6EFF6AFA5012001200B5
:101C8600800F810F820F830F840F890F8A0F8B0FAE
:101C96008C0F8D0F3A32030B131B232B333B0A0297
:101CA600121A222A576EF2905704D8A45DEF0EF04E
:101CB6005FEF0EF061EF0EF061EF0EF01200576E5F
:101CC600F2905704D8A46AEF0EF06CEF0EF06EEFA8
:101CD6000EF06EEF0EF01200576EF2905704D8A475
:101CE60077EF0EF079EF0EF07BEF0EF07BEF0EF054
:101CF6001200576EF2905704D8A484EF0EF086EFC8
:101D06000EF088EF0EF088EF0EF01200920F930F90
:101D1600940F950F960F0303A1920A50B36E09C054
:101D2600B2FF12009E901050CF6E0FC0CEFF120071
:101D3600F2941450D76E13C0D6FF12009E923BC089
:101D4600CCFF1200F0921200F0901200F2921200F4
:101D56009E9612009D9812009E9412009E9C120060
:021D6600120069
:020000040030CA
:0E000000FF02091EFF8181FF0FC00FE00F40BD
:00000001FF
